:060F62008F098C0A8D0BC3
:100F6800750E00750F01C3E50F950BE50A6480F84F
:100F7800E50E6480985079AC09E41209A2C004C057
:100F880005C006C007AC0AAD0BEC12099D8F178E81
:100F9800168D158C14D007D006D005D004120DB1CB
:100FA800C004C005C006C007AC0EAD0FEC12099D09
:100FB800A804A905AA06AB07D007D006D005D00417
:100FC8001208FBC004C005C006C007AC0CAD0DEC90
:100FD80012099DD003D002D001D0001208031209D3
:100FE800D68E0C8F0D050FE50F7002050E020F6EE1
:020FF800AF0D3B
:010FFA0022D4
:100FFB0075089CD3E50894647480948050127D0628
:10100B007C00AF08120F62EF2464F5B0050880E393
:01101B0022B2
:06102800120FFB80FB2209
:10080000020A42E86480F8E933E83360110460F0DA
:10081000ED33EC337009E8FCE9FDEAFEEBFF22045E
:1008200060DED3EB9FEA9EE99DE8C2E78CF0C2F759
:1008300095F0400CE8CCF8E9CDF9EACEFAEBCFFB25
:10084000120A0D85D0F05804700320D5B3E8047067
:10085000075002B2D5020A4C92D5EC0460F7E4CC02
:10086000C0E0C398F8603B94186008400DD0E0FBEE
:10087000020A24E4FBFAC9FC8028E830E406E4C953
:10088000FBE4CAFCE830E305E4C9CACBFCE8540742
:100890006010F8C3E913F9EA13FAEB13FBEC13FC4D
:1008A000D8F130F52FC3E49CFCEF9BFFEE9AFEEDF0
:1008B00099FDD0E0FBEF4E4D4C701222DB03020A93
:1008C00049EC2CFCEF33FFEE33FEED33FDED30E76A
:1008D000EB020A24EF2BFFEE3AFEED39FDD0E0FBF0
:1008E00050130BBB0003020A4CED13FDEE13FEEF99
:0808F00013FFEC13FC020A24C3
:1008F800020A4CEC5D046005E859047003020A42E0
:10090800120A0D580460F6EC4860F2EC7004FDFE23
:10091800FF22C860DB2481C85009C39860025006D2
:10092800020A499850CAF582E9294B4A7005AB82F8
:10093800020A3875F0007C1A7880C3EF9BEE9AEDB6
:1009480099400DC3EF9BFFEE9AFEED99FDE842F04A
:10095800DC23ACF0D0E0FFD0E0FED0E0FDAB82209D
:10096800E7101BEB60BAEC2CFCEF33FFEE33FEED27
:1009780033FD020A24E803F830E705C0F075F000FB
:10098800EF2FFFEE33FEED33FD40B830E7C280AA0B
:1009980075F020800E75F010800575F0087D007EDA
:1009A800007F003392D530D503120C4EEC33401043
:1009B800EF33FFEE33FEED33FDEC33FCD5F0ED22E3
:0E09C800E5F0247EA2D513CC92E7CDCEFF221F
:1009D600EDD2E7CD33EC3392D524814006E4FFFE19
:1009E600FDFC22FCE4CFCECDCC24E0501174FF8078
:1009F600EDC3CC13CCCD13CDCE13CECF13CF047015
:070A0600F030D5DE020C4EBA
:100DB1008F138E128D118C10E4FFFE7D807C3FAB72
:100DC10013AA12A911A810120B777009AF13AE1252
:100DD100AD11AC1022AF13AE12AD11AC10120A5707
:100DE100FBAF17AE16AD15AC14120A57FFBF0108C1
:100DF100E4FFFE7D807C3F22EF64046022EB64040B
:100E0100601DBB0127E4FFFEFDFCAB17AA16A91567
:100E1100A814120B7760084006E4FFFEFDFC227463
:100E2100FFF517F516F515F514020EBFE4F518F5E3
:100E310019FFFEFDFCAB13AA12A911A810120B7722
:100E4100504BAF17AE16AD15AC141209D68E188FD4
:100E510019AC18AD19EC12099DC8ECC8C9EDC9CA85
:100E6100EECACBEFCBAF17AE16AD15AC141208031B
:100E7100E4FBFAF9F8120B7770A5AF13AE12AD11BE
:100E8100AC10120BF08F138E128D118C10AF13AEAC
:100E910012AD11AC10120CB0AB17AA16A915A814FB
:100EA100120A71120F008F178E168D158C14E51909
:100EB10030E00B120BF08F178E168D158C14AF17B7
:070EC100AE16AD15AC1422C2
:100A0D00E9D2E7C933E833F892D5EDD2E7CD33EC2F
:070A1D0033FC5002B2D522A8
:100A2400EC30E7100FBF000C0EBE00080DBD000433
:100A34000BEB6014A2D5EB13FCED92E7FD2274FFDF
:100A4400FCFDFEFF22E480F8A2D574FF13FC7D8038
:030A5400E480EF4C
:100A5700ED33EC33601004700FED547F70057402B2
:0A0A670092E0227404220422E4222B
:100A7100EC4D6011E8497017ED33EC3304600DE47F
:100A8100FCFFFEFD22E933E8330470F8020A42124A
:100A91000A0D58046009E4CC24815006285009024B
:100AA1000A4C284003020A49C0E0EB4A7044B9806D
:100AB10006D0E0FB020A38EF4E701CBD8008EBFF48
:100AC100EAFEE9FD80EBE98DF0A4FEE5F0020B5AA8
:100AD100E9CDF9EAFEEBFFEF89F0A4FCE5F0CE8960
:100AE100F0A42EFFE435F0CD89F0A42DFEE435F01D
:100AF1008067EF4E7005BD80D780C3EF8BF0A4AC4B
:100B0100F0EE8BF0A42CFCE435F0F8EF8AF0A42C85
:100B1100E5F038FCE433CB8DF0A42CFCE5F03BF898
:100B2100EE8AF0A42CFCE5F038F8E433CF89F0A488
:100B31002CFCE5F038CF3400CE89F0A42FFFE5F08E
:100B41003EFEE433C98DF0A42EFEE5F039CD8AF0E6
:100B5100A42FFFE5F03EFEE43DFD33D0E0FB50075E
:100B61000BBB000F020A4CEC2CFCEF33FFEE33FE03
:060B7100ED33FD020A2431
:100B770074F8CC6480CCC86480C8F58204604FC325
:100B8700EB9FF5F0EA9E42F0E99D42F0E89C45F0C4
:100B9700603C501DE5825FFFE582D313CB5BCBF44E
:100BA7002B5582FB50280ABA002409B90020088077
:100BB7001DE5825BFBE582D313CF5FCFF4C3132F11
:100BC7005582FF50090EBE00050DBD00010CC3EB99
:100BD7009FF5F0EA9E42F0E99D42F0E89C45F060FF
:090BE70007CC4820E701B3EC2221
:100BF000ED33EC33600A047003BD8004ECB2E7FC13
:010C000022D1
:100EC80033DA929E35B16011377FE5FE3921848986
:100ED8003AAEC3FF3C1D955B3D6358473E75FDF038
:100EE8003F3172183F800000C2D5020A4C020A4204
:100EF800BD80FA50F3020A49ED33EC330460F17B0C
:100F08003B7AAA79B8783F120A71ED33EC3392D55F
:100F1800247B5011A2D570DB500BED448024045083
:100F280004A2D580CEEFFBEEFAEDF9ECF81209D663
:100F3800EFF582F404FC1209A2120807C082900E91
:100F4800C87409120C10ED33CC33D0F092D525F0CB
:0A0F5800A2D57001C313CC13FD22D3
:100C7C003E9248DA3ECCCCCD3F2AAAAB40000000D5
:100C8C003F8000003F9837F03FB504F33FD744FC5A
:100C9C003E3172173EB172173F0515913EDE5BD99E
:100CAC00D2008002C200EDD2E7F8CD33EC330470F1
:100CBC000BBD800592D5020A4C020A4240FBD314AC
:100CCC0060F2F5F07C3FEE7A00C39496C8948B40AA
:100CDC00230AC89469C8941A401A0AC89468C8941C
:100CEC001F40110AC8945AC89425400805F07A0090
:100CFC00CDC2E7CDC0F08C1A8D1B8E1C8F1DEA2344
:100D0C0023C0E0248CF582E4340CF583120C6C12B5
:100D1C000807ECC0E0EDC0E0EEC0E0EFC0E0120C64
:100D2C005CA81AA91BAA1CAB1D120803D0E0FBD0AF
:100D3C00E0FAD0E0F9D0E0B2E7F81208FB8C1A8D9B
:100D4C001B8E1C8F1D900C7C7403120C01A81AA90D
:100D5C001BAA1CAB1D120A71D0E0600F2498F582FF
:100D6C00E4340CF583120C6C1208078C1A8D1B8E54
:100D7C001C8F1DD0E0C3947FFDE49400FC12099DF0
:100D8C007B187A727931783F120A71A81AA91BAABA
:100D9C001CAB1D12080730000B7BD97A5B79DE780F
:050DAC003E120A712255
:100C0100C0E0EFFBEEFAEDF9ECF8120A71D0E0F575
:100C1100F0EFFBEEFAEDF9ECF8120C5CA3A3A3A341
:100C2100E8C0E0E9C0E0EAC0E0EBC0E0C0F0120AD1
:100C310071120C6CA3A3A3A3120807D0F0D0E0FBA0
:0D0C4100D0E0FAD0E0F9D0E0F8D5F0D422F0
:0300000002101CCF
:0C101C00787FE4F6D8FD758120021028D2
:0E0C4E00C3E49FFFE49EFEE49DFDE49CFC22B7
:100C5C00E493FC740193FD740293FE740393FF22DE
:100C6C00E493F8740193F9740293FA740393FB22DE
:00000001FF
